{
  "_format": "hh-sol-artifact-1",
  "contractName": "TasksV1",
  "sourceName": "contracts/TasksV1.sol",
  "abi": [
    {
      "anonymous": false,
      "inputs": [
        {
          "indexed": true,
          "internalType": "address",
          "name": "previousOwner",
          "type": "address"
        },
        {
          "indexed": true,
          "internalType": "address",
          "name": "newOwner",
          "type": "address"
        }
      ],
      "name": "OwnershipTransferred",
      "type": "event"
    },
    {
      "anonymous": false,
      "inputs": [
        {
          "indexed": false,
          "internalType": "uint256",
          "name": "taskId",
          "type": "uint256"
        },
        {
          "components": [
            {
              "internalType": "uint256",
              "name": "createdTime",
              "type": "uint256"
            },
            {
              "internalType": "uint256",
              "name": "startTime",
              "type": "uint256"
            },
            {
              "internalType": "uint256",
              "name": "duration",
              "type": "uint256"
            },
            {
              "internalType": "uint256",
              "name": "salary",
              "type": "uint256"
            },
            {
              "internalType": "uint256",
              "name": "deposit",
              "type": "uint256"
            },
            {
              "internalType": "address",
              "name": "creator",
              "type": "address"
            },
            {
              "internalType": "address",
              "name": "provider",
              "type": "address"
            },
            {
              "internalType": "enum TasksV1.TaskStatus",
              "name": "status",
              "type": "uint8"
            },
            {
              "internalType": "string",
              "name": "jobDesc",
              "type": "string"
            },
            {
              "internalType": "string",
              "name": "submission",
              "type": "string"
            },
            {
              "internalType": "string",
              "name": "disputeResult",
              "type": "string"
            }
          ],
          "indexed": false,
          "internalType": "struct TasksV1.Task",
          "name": "task",
          "type": "tuple"
        },
        {
          "indexed": false,
          "internalType": "address",
          "name": "creator",
          "type": "address"
        },
        {
          "indexed": false,
          "internalType": "string",
          "name": "refId",
          "type": "string"
        }
      ],
      "name": "TaskCreation",
      "type": "event"
    },
    {
      "anonymous": false,
      "inputs": [
        {
          "indexed": false,
          "internalType": "uint256",
          "name": "taskId",
          "type": "uint256"
        },
        {
          "indexed": false,
          "internalType": "address",
          "name": "sender",
          "type": "address"
        },
        {
          "indexed": false,
          "internalType": "enum TasksV1.TaskActions",
          "name": "action",
          "type": "uint8"
        }
      ],
      "name": "TaskUpdate",
      "type": "event"
    },
    {
      "inputs": [
        {
          "internalType": "uint256",
          "name": "",
          "type": "uint256"
        },
        {
          "internalType": "uint256",
          "name": "",
          "type": "uint256"
        }
      ],
      "name": "applicants",
      "outputs": [
        {
          "internalType": "address",
          "name": "",
          "type": "address"
        }
      ],
      "stateMutability": "view",
      "type": "function"
    },
    {
      "inputs": [
        {
          "internalType": "address",
          "name": "",
          "type": "address"
        },
        {
          "internalType": "uint256",
          "name": "",
          "type": "uint256"
        }
      ],
      "name": "appliedTasks",
      "outputs": [
        {
          "internalType": "uint256",
          "name": "",
          "type": "uint256"
        }
      ],
      "stateMutability": "view",
      "type": "function"
    },
    {
      "inputs": [
        {
          "internalType": "uint256",
          "name": "taskId",
          "type": "uint256"
        }
      ],
      "name": "applyTask",
      "outputs": [],
      "stateMutability": "nonpayable",
      "type": "function"
    },
    {
      "inputs": [
        {
          "internalType": "uint256",
          "name": "taskId",
          "type": "uint256"
        }
      ],
      "name": "cancelTask",
      "outputs": [],
      "stateMutability": "nonpayable",
      "type": "function"
    },
    {
      "inputs": [
        {
          "internalType": "uint256",
          "name": "taskId",
          "type": "uint256"
        },
        {
          "internalType": "address",
          "name": "addr",
          "type": "address"
        }
      ],
      "name": "checkAppliedTask",
      "outputs": [
        {
          "internalType": "bool",
          "name": "",
          "type": "bool"
        }
      ],
      "stateMutability": "view",
      "type": "function"
    },
    {
      "inputs": [
        {
          "internalType": "uint256",
          "name": "duration",
          "type": "uint256"
        },
        {
          "internalType": "string",
          "name": "jobDesc",
          "type": "string"
        },
        {
          "internalType": "string",
          "name": "refId",
          "type": "string"
        }
      ],
      "name": "createTask",
      "outputs": [],
      "stateMutability": "payable",
      "type": "function"
    },
    {
      "inputs": [
        {
          "internalType": "address",
          "name": "",
          "type": "address"
        },
        {
          "internalType": "uint256",
          "name": "",
          "type": "uint256"
        }
      ],
      "name": "createdTasks",
      "outputs": [
        {
          "internalType": "uint256",
          "name": "",
          "type": "uint256"
        }
      ],
      "stateMutability": "view",
      "type": "function"
    },
    {
      "inputs": [
        {
          "internalType": "uint256",
          "name": "taskId",
          "type": "uint256"
        },
        {
          "internalType": "uint8",
          "name": "providerRating",
          "type": "uint8"
        },
        {
          "internalType": "string",
          "name": "commentForProvider",
          "type": "string"
        }
      ],
      "name": "failTask",
      "outputs": [],
      "stateMutability": "nonpayable",
      "type": "function"
    },
    {
      "inputs": [
        {
          "internalType": "enum TasksV1.TaskStatus",
          "name": "status",
          "type": "uint8"
        }
      ],
      "name": "getActiveTasks",
      "outputs": [
        {
          "components": [
            {
              "internalType": "uint256",
              "name": "createdTime",
              "type": "uint256"
            },
            {
              "internalType": "uint256",
              "name": "startTime",
              "type": "uint256"
            },
            {
              "internalType": "uint256",
              "name": "duration",
              "type": "uint256"
            },
            {
              "internalType": "uint256",
              "name": "salary",
              "type": "uint256"
            },
            {
              "internalType": "uint256",
              "name": "deposit",
              "type": "uint256"
            },
            {
              "internalType": "address",
              "name": "creator",
              "type": "address"
            },
            {
              "internalType": "address",
              "name": "provider",
              "type": "address"
            },
            {
              "internalType": "enum TasksV1.TaskStatus",
              "name": "status",
              "type": "uint8"
            },
            {
              "internalType": "string",
              "name": "jobDesc",
              "type": "string"
            },
            {
              "internalType": "string",
              "name": "submission",
              "type": "string"
            },
            {
              "internalType": "string",
              "name": "disputeResult",
              "type": "string"
            }
          ],
          "internalType": "struct TasksV1.Task[]",
          "name": "",
          "type": "tuple[]"
        }
      ],
      "stateMutability": "view",
      "type": "function"
    },
    {
      "inputs": [
        {
          "internalType": "uint256",
          "name": "taskId",
          "type": "uint256"
        }
      ],
      "name": "getApplicant",
      "outputs": [
        {
          "internalType": "address[]",
          "name": "",
          "type": "address[]"
        }
      ],
      "stateMutability": "view",
      "type": "function"
    },
    {
      "inputs": [
        {
          "internalType": "address",
          "name": "addr",
          "type": "address"
        }
      ],
      "name": "getAppliedTask",
      "outputs": [
        {
          "internalType": "uint256[]",
          "name": "",
          "type": "uint256[]"
        }
      ],
      "stateMutability": "view",
      "type": "function"
    },
    {
      "inputs": [
        {
          "internalType": "address",
          "name": "addr",
          "type": "address"
        }
      ],
      "name": "getCreatedTask",
      "outputs": [
        {
          "internalType": "uint256[]",
          "name": "",
          "type": "uint256[]"
        }
      ],
      "stateMutability": "view",
      "type": "function"
    },
    {
      "inputs": [],
      "name": "owner",
      "outputs": [
        {
          "internalType": "address",
          "name": "",
          "type": "address"
        }
      ],
      "stateMutability": "view",
      "type": "function"
    },
    {
      "inputs": [
        {
          "internalType": "address",
          "name": "",
          "type": "address"
        },
        {
          "internalType": "uint256",
          "name": "",
          "type": "uint256"
        }
      ],
      "name": "provideredTasks",
      "outputs": [
        {
          "internalType": "uint256",
          "name": "",
          "type": "uint256"
        }
      ],
      "stateMutability": "view",
      "type": "function"
    },
    {
      "inputs": [
        {
          "internalType": "uint256",
          "name": "taskId",
          "type": "uint256"
        },
        {
          "internalType": "uint8",
          "name": "creatorRating",
          "type": "uint8"
        },
        {
          "internalType": "string",
          "name": "commentForCreator",
          "type": "string"
        }
      ],
      "name": "rateCreator",
      "outputs": [],
      "stateMutability": "nonpayable",
      "type": "function"
    },
    {
      "inputs": [],
      "name": "renounceOwnership",
      "outputs": [],
      "stateMutability": "nonpayable",
      "type": "function"
    },
    {
      "inputs": [
        {
          "internalType": "uint256",
          "name": "taskId",
          "type": "uint256"
        }
      ],
      "name": "requestDispute",
      "outputs": [],
      "stateMutability": "nonpayable",
      "type": "function"
    },
    {
      "inputs": [
        {
          "internalType": "uint256",
          "name": "taskId",
          "type": "uint256"
        },
        {
          "internalType": "string",
          "name": "prove",
          "type": "string"
        },
        {
          "internalType": "uint8",
          "name": "creatorPercentage",
          "type": "uint8"
        },
        {
          "internalType": "uint8",
          "name": "providerPercentage",
          "type": "uint8"
        }
      ],
      "name": "resolveDispute",
      "outputs": [],
      "stateMutability": "nonpayable",
      "type": "function"
    },
    {
      "inputs": [
        {
          "internalType": "uint256",
          "name": "taskId",
          "type": "uint256"
        },
        {
          "internalType": "uint8",
          "name": "providerRating",
          "type": "uint8"
        },
        {
          "internalType": "string",
          "name": "commentForProvider",
          "type": "string"
        }
      ],
      "name": "setTaskCompleted",
      "outputs": [],
      "stateMutability": "nonpayable",
      "type": "function"
    },
    {
      "inputs": [
        {
          "internalType": "uint256",
          "name": "taskId",
          "type": "uint256"
        },
        {
          "internalType": "address",
          "name": "provider",
          "type": "address"
        }
      ],
      "name": "startTask",
      "outputs": [],
      "stateMutability": "nonpayable",
      "type": "function"
    },
    {
      "inputs": [
        {
          "internalType": "uint256",
          "name": "taskId",
          "type": "uint256"
        },
        {
          "internalType": "string",
          "name": "submission",
          "type": "string"
        }
      ],
      "name": "submitResult",
      "outputs": [],
      "stateMutability": "nonpayable",
      "type": "function"
    },
    {
      "inputs": [],
      "name": "taskCount",
      "outputs": [
        {
          "internalType": "uint256",
          "name": "",
          "type": "uint256"
        }
      ],
      "stateMutability": "view",
      "type": "function"
    },
    {
      "inputs": [
        {
          "internalType": "uint256",
          "name": "",
          "type": "uint256"
        }
      ],
      "name": "tasks",
      "outputs": [
        {
          "internalType": "uint256",
          "name": "createdTime",
          "type": "uint256"
        },
        {
          "internalType": "uint256",
          "name": "startTime",
          "type": "uint256"
        },
        {
          "internalType": "uint256",
          "name": "duration",
          "type": "uint256"
        },
        {
          "internalType": "uint256",
          "name": "salary",
          "type": "uint256"
        },
        {
          "internalType": "uint256",
          "name": "deposit",
          "type": "uint256"
        },
        {
          "internalType": "address",
          "name": "creator",
          "type": "address"
        },
        {
          "internalType": "address",
          "name": "provider",
          "type": "address"
        },
        {
          "internalType": "enum TasksV1.TaskStatus",
          "name": "status",
          "type": "uint8"
        },
        {
          "internalType": "string",
          "name": "jobDesc",
          "type": "string"
        },
        {
          "internalType": "string",
          "name": "submission",
          "type": "string"
        },
        {
          "internalType": "string",
          "name": "disputeResult",
          "type": "string"
        }
      ],
      "stateMutability": "view",
      "type": "function"
    },
    {
      "inputs": [
        {
          "internalType": "uint256",
          "name": "",
          "type": "uint256"
        }
      ],
      "name": "tasksRating",
      "outputs": [
        {
          "internalType": "uint8",
          "name": "creatorRating",
          "type": "uint8"
        },
        {
          "internalType": "uint8",
          "name": "providerRating",
          "type": "uint8"
        },
        {
          "internalType": "string",
          "name": "commentForCreator",
          "type": "string"
        },
        {
          "internalType": "string",
          "name": "commentForProvider",
          "type": "string"
        }
      ],
      "stateMutability": "view",
      "type": "function"
    },
    {
      "inputs": [
        {
          "internalType": "address",
          "name": "newOwner",
          "type": "address"
        }
      ],
      "name": "transferOwnership",
      "outputs": [],
      "stateMutability": "nonpayable",
      "type": "function"
    },
    {
      "inputs": [
        {
          "internalType": "uint32",
          "name": "_unlockTime",
          "type": "uint32"
        }
      ],
      "name": "updateUnlockTime",
      "outputs": [],
      "stateMutability": "nonpayable",
      "type": "function"
    },
    {
      "inputs": [
        {
          "internalType": "uint256",
          "name": "taskId",
          "type": "uint256"
        }
      ],
      "name": "withdrawApplication",
      "outputs": [],
      "stateMutability": "nonpayable",
      "type": "function"
    },
    {
      "inputs": [
        {
          "internalType": "uint256",
          "name": "taskId",
          "type": "uint256"
        }
      ],
      "name": "withdrawDeposit",
      "outputs": [],
      "stateMutability": "nonpayable",
      "type": "function"
    }
  ],
  "bytecode": "0x60806040526001805562278d00600860006101000a81548163ffffffff021916908363ffffffff1602179055503480156200003957600080fd5b506200005a6200004e6200006060201b60201c565b6200006860201b60201c565b6200012c565b600033905090565b60008060009054906101000a900473ffffffffffffffffffffffffffffffffffffffff169050816000806101000a81548173ffffffffffffffffffffffffffffffffffffffff021916908373ffffffffffffffffffffffffffffffffffffffff1602179055508173ffffffffffffffffffffffffffffffffffffffff168173ffffffffffffffffffffffffffffffffffffffff167f8be0079c531659141344cd1fd0a4f28419497f9722a3daafe3b4186f6b6457e060405160405180910390a35050565b615142806200013c6000396000f3fe6080604052600436106101b75760003560e01c80638da5cb5b116100ec578063c6930a451161008a578063eff4fca911610064578063eff4fca914610637578063f1d5314a14610677578063f2fde38b146106a0578063fb8360eb146106c9576101b7565b8063c6930a45146105a8578063e25aa1db146105d1578063eea3f82d146105fa576101b7565b8063abf2836d116100c6578063abf2836d146104ee578063b6cb58a51461052b578063bfc2d0eb14610556578063c41a49d51461057f576101b7565b80638da5cb5b1461045d578063a6d87df414610488578063ab957b13146104c5576101b7565b8063715018a611610159578063841c908d11610133578063841c908d146103945780638524ac98146103d15780638c0dd79a146103ed5780638d97767214610416576101b7565b8063715018a61461032b5780637eec20a81461034257806380d929dd1461036b576101b7565b806337b9fcf41161019557806337b9fcf41461025f5780635153d4e11461029c57806357984ad6146102d95780635e61235a14610302576101b7565b80631c52f359146101bc5780631dace9d7146101f957806333289a4614610236575b600080fd5b3480156101c857600080fd5b506101e360048036038101906101de91906137be565b610706565b6040516101f09190613819565b60405180910390f35b34801561020557600080fd5b50610220600480360381019061021b9190613834565b610828565b60405161022d919061391f565b60405180910390f35b34801561024257600080fd5b5061025d60048036038101906102589190613941565b6108bf565b005b34801561026b57600080fd5b5061028660048036038101906102819190613993565b610bd7565b6040516102939190613c9e565b60405180910390f35b3480156102a857600080fd5b506102c360048036038101906102be9190613cc0565b611050565b6040516102d09190613d0f565b60405180910390f35b3480156102e557600080fd5b5061030060048036038101906102fb9190613941565b61109e565b005b34801561030e57600080fd5b5061032960048036038101906103249190613e98565b611364565b005b34801561033757600080fd5b50610340611790565b005b34801561034e57600080fd5b5061036960048036038101906103649190613941565b6117a4565b005b34801561037757600080fd5b50610392600480360381019061038d9190613941565b611950565b005b3480156103a057600080fd5b506103bb60048036038101906103b69190613f1b565b611b68565b6040516103c89190613f6a565b60405180910390f35b6103eb60048036038101906103e69190613fe5565b611b99565b005b3480156103f957600080fd5b50610414600480360381019061040f9190614075565b611ed0565b005b34801561042257600080fd5b5061043d60048036038101906104389190613941565b612069565b6040516104549b9a9998979695949392919061412a565b60405180910390f35b34801561046957600080fd5b506104726122a8565b60405161047f9190613d0f565b60405180910390f35b34801561049457600080fd5b506104af60048036038101906104aa9190613f1b565b6122d1565b6040516104bc9190613f6a565b60405180910390f35b3480156104d157600080fd5b506104ec60048036038101906104e791906141ea565b612302565b005b3480156104fa57600080fd5b5061051560048036038101906105109190613f1b565b6125e8565b6040516105229190613f6a565b60405180910390f35b34801561053757600080fd5b50610540612619565b60405161054d9190613f6a565b60405180910390f35b34801561056257600080fd5b5061057d600480360381019061057891906141ea565b61261f565b005b34801561058b57600080fd5b506105a660048036038101906105a191906137be565b612977565b005b3480156105b457600080fd5b506105cf60048036038101906105ca91906141ea565b612bdd565b005b3480156105dd57600080fd5b506105f860048036038101906105f39190614295565b612e05565b005b34801561060657600080fd5b50610621600480360381019061061c9190613941565b612e31565b60405161062e9190614371565b60405180910390f35b34801561064357600080fd5b5061065e60048036038101906106599190613941565b612ed2565b60405161066e94939291906143a2565b60405180910390f35b34801561068357600080fd5b5061069e60048036038101906106999190613941565b61302c565b005b3480156106ac57600080fd5b506106c760048036038101906106c29190613834565b61310b565b005b3480156106d557600080fd5b506106f060048036038101906106eb9190613834565b61318f565b6040516106fd919061391f565b60405180910390f35b6000806005600085815260200190815260200160002080548060200260200160405190810160405280929190818152602001828054801561079c57602002820191906000526020600020905b8160009054906101000a900473ffffffffffffffffffffffffffffffffffffffff1673ffffffffffffffffffffffffffffffffffffffff1681526020019060010190808311610752575b5050505050905060005b815181101561081b578373ffffffffffffffffffffffffffffffffffffffff168282815181106107d9576107d86143f5565b5b602002602001015173ffffffffffffffffffffffffffffffffffffffff16141561080857600192505050610822565b808061081390614453565b9150506107a6565b5060009150505b92915050565b6060600260008373ffffffffffffffffffffffffffffffffffffffff1673ffffffffffffffffffffffffffffffffffffffff1681526020019081526020016000208054806020026020016040519081016040528092919081815260200182805480156108b357602002820191906000526020600020905b81548152602001906001019080831161089f575b50505050509050919050565b3373ffffffffffffffffffffffffffffffffffffffff166006600083815260200190815260200160002060050160009054906101000a900473ffffffffffffffffffffffffffffffffffffffff1673ffffffffffffffffffffffffffffffffffffffff1614610963576040517f08c379a000000000000000000000000000000000000000000000000000000000815260040161095a906144e8565b60405180910390fd5b600060066000838152602001908152602001600020600401541161098657600080fd5b600580811115610999576109986139fb565b5b6006600083815260200190815260200160002060060160149054906101000a900460ff1660058111156109cf576109ce6139fb565b5b1480610a445750600160058111156109ea576109e96139fb565b5b6006600083815260200190815260200160002060060160149054906101000a900460ff166005811115610a2057610a1f6139fb565b5b148015610a43575060006005600083815260200190815260200160002080549050145b5b80610ada575060016005811115610a5e57610a5d6139fb565b5b6006600083815260200190815260200160002060060160149054906101000a900460ff166005811115610a9457610a936139fb565b5b148015610ad95750600860009054906101000a900463ffffffff1663ffffffff166006600083815260200190815260200160002060000154610ad69190614508565b42115b5b610b19576040517f08c379a0000000000000000000000000000000000000000000000000000000008152600401610b10906145aa565b60405180910390fd5b600060066000838152602001908152602001600020600401549050600060066000848152602001908152602001600020600401819055503373ffffffffffffffffffffffffffffffffffffffff166108fc829081150290604051600060405180830381858888f19350505050158015610b96573d6000803e3d6000fd5b507f9888438c7b0c8ddcea7ef76171405294a443312c4dc2dde65fee6a2f150eb7d282336001604051610bcb93929190614612565b60405180910390a15050565b6060600080600190505b600154811015610c5c57836005811115610bfe57610bfd6139fb565b5b6006600083815260200190815260200160002060060160149054906101000a900460ff166005811115610c3457610c336139fb565b5b1415610c49578180610c4590614453565b9250505b8080610c5490614453565b915050610be1565b5060008167ffffffffffffffff811115610c7957610c78613d34565b5b604051908082528060200260200182016040528015610cb257816020015b610c9f613537565b815260200190600190039081610c975790505b509050600080600190505b60015481101561104457856005811115610cda57610cd96139fb565b5b6006600083815260200190815260200160002060060160149054906101000a900460ff166005811115610d1057610d0f6139fb565b5b141561103157600660008281526020019081526020016000206040518061016001604052908160008201548152602001600182015481526020016002820154815260200160038201548152602001600482015481526020016005820160009054906101000a900473ffffffffffffffffffffffffffffffffffffffff1673ffffffffffffffffffffffffffffffffffffffff1673ffffffffffffffffffffffffffffffffffffffff1681526020016006820160009054906101000a900473ffffffffffffffffffffffffffffffffffffffff1673ffffffffffffffffffffffffffffffffffffffff1673ffffffffffffffffffffffffffffffffffffffff1681526020016006820160149054906101000a900460ff166005811115610e3857610e376139fb565b5b6005811115610e4a57610e496139fb565b5b8152602001600782018054610e5e90614678565b80601f0160208091040260200160405190810160405280929190818152602001828054610e8a90614678565b8015610ed75780601f10610eac57610100808354040283529160200191610ed7565b820191906000526020600020905b815481529060010190602001808311610eba57829003601f168201915b50505050508152602001600882018054610ef090614678565b80601f0160208091040260200160405190810160405280929190818152602001828054610f1c90614678565b8015610f695780601f10610f3e57610100808354040283529160200191610f69565b820191906000526020600020905b815481529060010190602001808311610f4c57829003601f168201915b50505050508152602001600982018054610f8290614678565b80601f0160208091040260200160405190810160405280929190818152602001828054610fae90614678565b8015610ffb5780601f10610fd057610100808354040283529160200191610ffb565b820191906000526020600020905b815481529060010190602001808311610fde57829003601f168201915b505050505081525050838381518110611017576110166143f5565b5b6020026020010181905250818061102d90614453565b9250505b808061103c90614453565b915050610cbd565b50819350505050919050565b6005602052816000526040600020818154811061106c57600080fd5b906000526020600020016000915091509054906101000a900473ffffffffffffffffffffffffffffffffffffffff1681565b600060058111156110b2576110b16139fb565b5b6006600083815260200190815260200160002060060160149054906101000a900460ff1660058111156110e8576110e76139fb565b5b14611128576040517f08c379a000000000000000000000000000000000000000000000000000000000815260040161111f906146f6565b60405180910390fd5b3373ffffffffffffffffffffffffffffffffffffffff166006600083815260200190815260200160002060050160009054906101000a900473ffffffffffffffffffffffffffffffffffffffff1673ffffffffffffffffffffffffffffffffffffffff1614156111cd576040517f08c379a00000000000000000000000000000000000000000000000000000000081526004016111c490614762565b60405180910390fd5b600060056000838152602001908152602001600020905080339080600181540180825580915050600190039060005260206000200160009091909190916101000a81548173ffffffffffffffffffffffffffffffffffffffff021916908373ffffffffffffffffffffffffffffffffffffffff16021790555080600560008481526020019081526020016000209080546112689291906135cf565b506000600460003373ffffffffffffffffffffffffffffffffffffffff1673ffffffffffffffffffffffffffffffffffffffff16815260200190815260200160002090508083908060018154018082558091505060019003906000526020600020016000909190919091505580600460003373ffffffffffffffffffffffffffffffffffffffff1673ffffffffffffffffffffffffffffffffffffffff168152602001908152602001600020908054611322929190613621565b507f9888438c7b0c8ddcea7ef76171405294a443312c4dc2dde65fee6a2f150eb7d28333600260405161135793929190614612565b60405180910390a1505050565b61136c613226565b6064818361137a9190614782565b60ff16146113bd576040517f08c379a00000000000000000000000000000000000000000000000000000000081526004016113b490614805565b60405180910390fd5b600460058111156113d1576113d06139fb565b5b6006600086815260200190815260200160002060060160149054906101000a900460ff166005811115611407576114066139fb565b5b14611447576040517f08c379a000000000000000000000000000000000000000000000000000000000815260040161143e90614871565b60405180910390fd5b60036006600086815260200190815260200160002060060160146101000a81548160ff02191690836005811115611481576114806139fb565b5b0217905550826006600086815260200190815260200160002060090190805190602001906114b0929190613673565b506000600660008681526020019081526020016000206004015490506000600660008781526020019081526020016000206004018190555060008360ff161180156114fe575060008260ff16115b1561163357600060648460ff16836115169190614891565b611520919061491a565b905060008183611530919061494b565b90506006600088815260200190815260200160002060050160009054906101000a900473ffffffffffffffffffffffffffffffffffffffff1673ffffffffffffffffffffffffffffffffffffffff166108fc839081150290604051600060405180830381858888f193505050501580156115ae573d6000803e3d6000fd5b506006600088815260200190815260200160002060060160009054906101000a900473ffffffffffffffffffffffffffffffffffffffff1673ffffffffffffffffffffffffffffffffffffffff166108fc829081150290604051600060405180830381858888f1935050505015801561162b573d6000803e3d6000fd5b50505061174d565b60648360ff1614156116c1576006600086815260200190815260200160002060050160009054906101000a900473ffffffffffffffffffffffffffffffffffffffff1673ffffffffffffffffffffffffffffffffffffffff166108fc829081150290604051600060405180830381858888f193505050501580156116bb573d6000803e3d6000fd5b5061174c565b60648260ff16141561174b576006600086815260200190815260200160002060060160009054906101000a900473ffffffffffffffffffffffffffffffffffffffff1673ffffffffffffffffffffffffffffffffffffffff166108fc829081150290604051600060405180830381858888f19350505050158015611749573d6000803e3d6000fd5b505b5b5b7f9888438c7b0c8ddcea7ef76171405294a443312c4dc2dde65fee6a2f150eb7d28533600960405161178193929190614612565b60405180910390a15050505050565b611798613226565b6117a260006132a4565b565b3373ffffffffffffffffffffffffffffffffffffffff166006600083815260200190815260200160002060050160009054906101000a900473ffffffffffffffffffffffffffffffffffffffff1673ffffffffffffffffffffffffffffffffffffffff1614611848576040517f08c379a000000000000000000000000000000000000000000000000000000000815260040161183f906144e8565b60405180910390fd5b6000600581111561185c5761185b6139fb565b5b6006600083815260200190815260200160002060060160149054906101000a900460ff166005811115611892576118916139fb565b5b146118d2576040517f08c379a00000000000000000000000000000000000000000000000000000000081526004016118c9906149cb565b60405180910390fd5b60016006600083815260200190815260200160002060060160146101000a81548160ff0219169083600581111561190c5761190b6139fb565b5b02179055507f9888438c7b0c8ddcea7ef76171405294a443312c4dc2dde65fee6a2f150eb7d28133600060405161194593929190614612565b60405180910390a150565b3373ffffffffffffffffffffffffffffffffffffffff166006600083815260200190815260200160002060060160009054906101000a900473ffffffffffffffffffffffffffffffffffffffff1673ffffffffffffffffffffffffffffffffffffffff161480611a2157503373ffffffffffffffffffffffffffffffffffffffff166006600083815260200190815260200160002060050160009054906101000a900473ffffffffffffffffffffffffffffffffffffffff1673ffffffffffffffffffffffffffffffffffffffff16145b611a60576040517f08c379a0000000000000000000000000000000000000000000000000000000008152600401611a5790614a37565b60405180910390fd5b60026005811115611a7457611a736139fb565b5b6006600083815260200190815260200160002060060160149054906101000a900460ff166005811115611aaa57611aa96139fb565b5b14611aea576040517f08c379a0000000000000000000000000000000000000000000000000000000008152600401611ae190614aa3565b60405180910390fd5b60046006600083815260200190815260200160002060060160146101000a81548160ff02191690836005811115611b2457611b236139fb565b5b02179055507f9888438c7b0c8ddcea7ef76171405294a443312c4dc2dde65fee6a2f150eb7d281336008604051611b5d93929190614612565b60405180910390a150565b60046020528160005260406000208181548110611b8457600080fd5b90600052602060002001600091509150505481565b60003390506000604051806101600160405280428152602001600081526020018781526020013481526020013481526020018373ffffffffffffffffffffffffffffffffffffffff168152602001600073ffffffffffffffffffffffffffffffffffffffff16815260200160006005811115611c1857611c176139fb565b5b81526020018681526020016040518060200160405280600081525081526020016040518060200160405280600081525081525090506000600154905060016000815480929190611c6790614453565b91905055506000600260008573ffffffffffffffffffffffffffffffffffffffff1673ffffffffffffffffffffffffffffffffffffffff16815260200190815260200160002090508082908060018154018082558091505060019003906000526020600020016000909190919091505580600260008673ffffffffffffffffffffffffffffffffffffffff1673ffffffffffffffffffffffffffffffffffffffff168152602001908152602001600020908054611d25929190613621565b508260066000848152602001908152602001600020600082015181600001556020820151816001015560408201518160020155606082015181600301556080820151816004015560a08201518160050160006101000a81548173ffffffffffffffffffffffffffffffffffffffff021916908373ffffffffffffffffffffffffffffffffffffffff16021790555060c08201518160060160006101000a81548173ffffffffffffffffffffffffffffffffffffffff021916908373ffffffffffffffffffffffffffffffffffffffff16021790555060e08201518160060160146101000a81548160ff02191690836005811115611e2557611e246139fb565b5b0217905550610100820151816007019080519060200190611e47929190613673565b50610120820151816008019080519060200190611e65929190613673565b50610140820151816009019080519060200190611e83929190613673565b509050507fadca11b273fe1ba007c6a34b6348e66e3650c3c46cd1bbd731f1b8b4d583945c8284868989604051611ebe959493929190614bed565b60405180910390a15050505050505050565b3373ffffffffffffffffffffffffffffffffffffffff166006600084815260200190815260200160002060060160009054906101000a900473ffffffffffffffffffffffffffffffffffffffff1673ffffffffffffffffffffffffffffffffffffffff1614611f74576040517f08c379a0000000000000000000000000000000000000000000000000000000008152600401611f6b90614c8e565b60405180910390fd5b60026005811115611f8857611f876139fb565b5b6006600084815260200190815260200160002060060160149054906101000a900460ff166005811115611fbe57611fbd6139fb565b5b14611ffe576040517f08c379a0000000000000000000000000000000000000000000000000000000008152600401611ff590614aa3565b60405180910390fd5b80600660008481526020019081526020016000206008019080519060200190612028929190613673565b507f9888438c7b0c8ddcea7ef76171405294a443312c4dc2dde65fee6a2f150eb7d28233600660405161205d93929190614612565b60405180910390a15050565b60066020528060005260406000206000915090508060000154908060010154908060020154908060030154908060040154908060050160009054906101000a900473ffffffffffffffffffffffffffffffffffffffff16908060060160009054906101000a900473ffffffffffffffffffffffffffffffffffffffff16908060060160149054906101000a900460ff169080600701805461210990614678565b80601f016020809104026020016040519081016040528092919081815260200182805461213590614678565b80156121825780601f1061215757610100808354040283529160200191612182565b820191906000526020600020905b81548152906001019060200180831161216557829003601f168201915b50505050509080600801805461219790614678565b80601f01602080910402602001604051908101604052809291908181526020018280546121c390614678565b80156122105780601f106121e557610100808354040283529160200191612210565b820191906000526020600020905b8154815290600101906020018083116121f357829003601f168201915b50505050509080600901805461222590614678565b80601f016020809104026020016040519081016040528092919081815260200182805461225190614678565b801561229e5780601f106122735761010080835404028352916020019161229e565b820191906000526020600020905b81548152906001019060200180831161228157829003601f168201915b505050505090508b565b60008060009054906101000a900473ffffffffffffffffffffffffffffffffffffffff16905090565b600260205281600052604060002081815481106122ed57600080fd5b90600052602060002001600091509150505481565b60026005811115612316576123156139fb565b5b6006600085815260200190815260200160002060060160149054906101000a900460ff16600581111561234c5761234b6139fb565b5b1461238c576040517f08c379a000000000000000000000000000000000000000000000000000000000815260040161238390614cfa565b60405180910390fd5b3373ffffffffffffffffffffffffffffffffffffffff166006600085815260200190815260200160002060050160009054906101000a900473ffffffffffffffffffffffffffffffffffffffff1673ffffffffffffffffffffffffffffffffffffffff1614612430576040517f08c379a000000000000000000000000000000000000000000000000000000000815260040161242790614d66565b60405180910390fd5b600660008481526020019081526020016000206002015460066000858152602001908152602001600020600101546124689190614508565b42116124a9576040517f08c379a00000000000000000000000000000000000000000000000000000000081526004016124a090614dd2565b60405180910390fd5b60006006600085815260200190815260200160002060080180546124cc90614678565b90501461250e576040517f08c379a000000000000000000000000000000000000000000000000000000000815260040161250590614e3e565b60405180910390fd5b60056006600085815260200190815260200160002060060160146101000a81548160ff02191690836005811115612548576125476139fb565b5b0217905550816007600085815260200190815260200160002060000160016101000a81548160ff021916908360ff160217905550806007600085815260200190815260200160002060020190805190602001906125a6929190613673565b507f9888438c7b0c8ddcea7ef76171405294a443312c4dc2dde65fee6a2f150eb7d2833360056040516125db93929190614612565b60405180910390a1505050565b6003602052816000526040600020818154811061260457600080fd5b90600052602060002001600091509150505481565b60015481565b3373ffffffffffffffffffffffffffffffffffffffff166006600085815260200190815260200160002060050160009054906101000a900473ffffffffffffffffffffffffffffffffffffffff1673ffffffffffffffffffffffffffffffffffffffff16146126c3576040517f08c379a00000000000000000000000000000000000000000000000000000000081526004016126ba906144e8565b60405180910390fd5b600260058111156126d7576126d66139fb565b5b6006600085815260200190815260200160002060060160149054906101000a900460ff16600581111561270d5761270c6139fb565b5b1461274d576040517f08c379a000000000000000000000000000000000000000000000000000000000815260040161274490614aa3565b60405180910390fd5b60008260ff1610158015612765575060058260ff1611155b6127a4576040517f08c379a000000000000000000000000000000000000000000000000000000000815260040161279b90614eaa565b60405180910390fd5b60008151116127e8576040517f08c379a00000000000000000000000000000000000000000000000000000000081526004016127df90614f16565b60405180910390fd5b60036006600085815260200190815260200160002060060160146101000a81548160ff02191690836005811115612822576128216139fb565b5b0217905550816007600085815260200190815260200160002060000160016101000a81548160ff021916908360ff16021790555080600760008581526020019081526020016000206002019080519060200190612880929190613673565b50600060066000858152602001908152602001600020600401549050600060066000868152602001908152602001600020600401819055506006600085815260200190815260200160002060060160009054906101000a900473ffffffffffffffffffffffffffffffffffffffff1673ffffffffffffffffffffffffffffffffffffffff166108fc829081150290604051600060405180830381858888f19350505050158015612934573d6000803e3d6000fd5b507f9888438c7b0c8ddcea7ef76171405294a443312c4dc2dde65fee6a2f150eb7d28433600760405161296993929190614612565b60405180910390a150505050565b6000600581111561298b5761298a6139fb565b5b6006600084815260200190815260200160002060060160149054906101000a900460ff1660058111156129c1576129c06139fb565b5b14612a01576040517f08c379a00000000000000000000000000000000000000000000000000000000081526004016129f8906146f6565b60405180910390fd5b3373ffffffffffffffffffffffffffffffffffffffff166006600084815260200190815260200160002060050160009054906101000a900473ffffffffffffffffffffffffffffffffffffffff1673ffffffffffffffffffffffffffffffffffffffff1614612aa5576040517f08c379a0000000000000000000000000000000000000000000000000000000008152600401612a9c90614d66565b60405180910390fd5b612aaf8282610706565b612aee576040517f08c379a0000000000000000000000000000000000000000000000000000000008152600401612ae590614f82565b60405180910390fd5b806006600084815260200190815260200160002060060160006101000a81548173ffffffffffffffffffffffffffffffffffffffff021916908373ffffffffffffffffffffffffffffffffffffffff16021790555060026006600084815260200190815260200160002060060160146101000a81548160ff02191690836005811115612b7d57612b7c6139fb565b5b02179055504260066000848152602001908152602001600020600101819055507f9888438c7b0c8ddcea7ef76171405294a443312c4dc2dde65fee6a2f150eb7d282336004604051612bd193929190614612565b60405180910390a15050565b3373ffffffffffffffffffffffffffffffffffffffff166006600085815260200190815260200160002060060160009054906101000a900473ffffffffffffffffffffffffffffffffffffffff1673ffffffffffffffffffffffffffffffffffffffff1614612c81576040517f08c379a0000000000000000000000000000000000000000000000000000000008152600401612c7890614c8e565b60405180910390fd5b60036005811115612c9557612c946139fb565b5b6006600085815260200190815260200160002060060160149054906101000a900460ff166005811115612ccb57612cca6139fb565b5b14612d0b576040517f08c379a0000000000000000000000000000000000000000000000000000000008152600401612d0290614fee565b60405180910390fd5b60008260ff1610158015612d23575060058260ff1611155b612d62576040517f08c379a0000000000000000000000000000000000000000000000000000000008152600401612d5990614eaa565b60405180910390fd5b6000815111612da6576040517f08c379a0000000000000000000000000000000000000000000000000000000008152600401612d9d90614f16565b60405180910390fd5b816007600085815260200190815260200160002060000160006101000a81548160ff021916908360ff16021790555080600760008581526020019081526020016000206001019080519060200190612dff929190613673565b50505050565b612e0d613226565b80600860006101000a81548163ffffffff021916908363ffffffff16021790555050565b606060056000838152602001908152602001600020805480602002602001604051908101604052809291908181526020018280548015612ec657602002820191906000526020600020905b8160009054906101000a900473ffffffffffffffffffffffffffffffffffffffff1673ffffffffffffffffffffffffffffffffffffffff1681526020019060010190808311612e7c575b50505050509050919050565b60076020528060005260406000206000915090508060000160009054906101000a900460ff16908060000160019054906101000a900460ff1690806001018054612f1b90614678565b80601f0160208091040260200160405190810160405280929190818152602001828054612f4790614678565b8015612f945780601f10612f6957610100808354040283529160200191612f94565b820191906000526020600020905b815481529060010190602001808311612f7757829003601f168201915b505050505090806002018054612fa990614678565b80601f0160208091040260200160405190810160405280929190818152602001828054612fd590614678565b80156130225780601f10612ff757610100808354040283529160200191613022565b820191906000526020600020905b81548152906001019060200180831161300557829003601f168201915b5050505050905084565b600060058111156130405761303f6139fb565b5b6006600083815260200190815260200160002060060160149054906101000a900460ff166005811115613076576130756139fb565b5b146130b6576040517f08c379a00000000000000000000000000000000000000000000000000000000081526004016130ad906146f6565b60405180910390fd5b6130c08133613368565b506130cb813361346b565b507f9888438c7b0c8ddcea7ef76171405294a443312c4dc2dde65fee6a2f150eb7d28133600360405161310093929190614612565b60405180910390a150565b613113613226565b600073ffffffffffffffffffffffffffffffffffffffff168173ffffffffffffffffffffffffffffffffffffffff161415613183576040517f08c379a000000000000000000000000000000000000000000000000000000000815260040161317a90615080565b60405180910390fd5b61318c816132a4565b50565b6060600460008373ffffffffffffffffffffffffffffffffffffffff1673ffffffffffffffffffffffffffffffffffffffff16815260200190815260200160002080548060200260200160405190810160405280929190818152602001828054801561321a57602002820191906000526020600020905b815481526020019060010190808311613206575b50505050509050919050565b61322e61352f565b73ffffffffffffffffffffffffffffffffffffffff1661324c6122a8565b73ffffffffffffffffffffffffffffffffffffffff16146132a2576040517f08c379a0000000000000000000000000000000000000000000000000000000008152600401613299906150ec565b60405180910390fd5b565b60008060009054906101000a900473ffffffffffffffffffffffffffffffffffffffff169050816000806101000a81548173ffffffffffffffffffffffffffffffffffffffff021916908373ffffffffffffffffffffffffffffffffffffffff1602179055508173ffffffffffffffffffffffffffffffffffffffff168173ffffffffffffffffffffffffffffffffffffffff167f8be0079c531659141344cd1fd0a4f28419497f9722a3daafe3b4186f6b6457e060405160405180910390a35050565b60008060056000858152602001908152602001600020905060005b818054905081101561345e578373ffffffffffffffffffffffffffffffffffffffff168282815481106133b9576133b86143f5565b5b9060005260206000200160009054906101000a900473ffffffffffffffffffffffffffffffffffffffff1673ffffffffffffffffffffffffffffffffffffffff16141561344b57818181548110613413576134126143f5565b5b9060005260206000200160006101000a81549073ffffffffffffffffffffffffffffffffffffffff0219169055600192505050613465565b808061345690614453565b915050613383565b5060009150505b92915050565b600080600460008473ffffffffffffffffffffffffffffffffffffffff1673ffffffffffffffffffffffffffffffffffffffff168152602001908152602001600020905060005b818054905081101561352257848282815481106134d2576134d16143f5565b5b9060005260206000200154141561350f578181815481106134f6576134f56143f5565b5b9060005260206000200160009055600192505050613529565b808061351a90614453565b9150506134b2565b5060009150505b92915050565b600033905090565b6040518061016001604052806000815260200160008152602001600081526020016000815260200160008152602001600073ffffffffffffffffffffffffffffffffffffffff168152602001600073ffffffffffffffffffffffffffffffffffffffff168152602001600060058111156135b4576135b36139fb565b5b81526020016060815260200160608152602001606081525090565b8280548282559060005260206000209081019282156136105760005260206000209182015b8281111561360f5782548255916001019190600101906135f4565b5b50905061361d91906136f9565b5090565b8280548282559060005260206000209081019282156136625760005260206000209182015b82811115613661578254825591600101919060010190613646565b5b50905061366f91906136f9565b5090565b82805461367f90614678565b90600052602060002090601f0160209004810192826136a157600085556136e8565b82601f106136ba57805160ff19168380011785556136e8565b828001600101855582156136e8579182015b828111156136e75782518255916020019190600101906136cc565b5b5090506136f591906136f9565b5090565b5b808211156137125760008160009055506001016136fa565b5090565b6000604051905090565b600080fd5b600080fd5b6000819050919050565b61373d8161372a565b811461374857600080fd5b50565b60008135905061375a81613734565b92915050565b600073ffffffffffffffffffffffffffffffffffffffff82169050919050565b600061378b82613760565b9050919050565b61379b81613780565b81146137a657600080fd5b50565b6000813590506137b881613792565b92915050565b600080604083850312156137d5576137d4613720565b5b60006137e38582860161374b565b92505060206137f4858286016137a9565b9150509250929050565b60008115159050919050565b613813816137fe565b82525050565b600060208201905061382e600083018461380a565b92915050565b60006020828403121561384a57613849613720565b5b6000613858848285016137a9565b91505092915050565b600081519050919050565b600082825260208201905092915050565b6000819050602082019050919050565b6138968161372a565b82525050565b60006138a8838361388d565b60208301905092915050565b6000602082019050919050565b60006138cc82613861565b6138d6818561386c565b93506138e18361387d565b8060005b838110156139125781516138f9888261389c565b9750613904836138b4565b9250506001810190506138e5565b5085935050505092915050565b6000602082019050818103600083015261393981846138c1565b905092915050565b60006020828403121561395757613956613720565b5b60006139658482850161374b565b91505092915050565b6006811061397b57600080fd5b50565b60008135905061398d8161396e565b92915050565b6000602082840312156139a9576139a8613720565b5b60006139b78482850161397e565b91505092915050565b600081519050919050565b600082825260208201905092915050565b6000819050602082019050919050565b6139f581613780565b82525050565b7f4e487b7100000000000000000000000000000000000000000000000000000000600052602160045260246000fd5b60068110613a3b57613a3a6139fb565b5b50565b6000819050613a4c82613a2a565b919050565b6000613a5c82613a3e565b9050919050565b613a6c81613a51565b82525050565b600081519050919050565b600082825260208201905092915050565b60005b83811015613aac578082015181840152602081019050613a91565b83811115613abb576000848401525b50505050565b6000601f19601f8301169050919050565b6000613add82613a72565b613ae78185613a7d565b9350613af7818560208601613a8e565b613b0081613ac1565b840191505092915050565b600061016083016000830151613b24600086018261388d565b506020830151613b37602086018261388d565b506040830151613b4a604086018261388d565b506060830151613b5d606086018261388d565b506080830151613b70608086018261388d565b5060a0830151613b8360a08601826139ec565b5060c0830151613b9660c08601826139ec565b5060e0830151613ba960e0860182613a63565b50610100830151848203610100860152613bc38282613ad2565b915050610120830151848203610120860152613bdf8282613ad2565b915050610140830151848203610140860152613bfb8282613ad2565b9150508091505092915050565b6000613c148383613b0b565b905092915050565b6000602082019050919050565b6000613c34826139c0565b613c3e81856139cb565b935083602082028501613c50856139dc565b8060005b85811015613c8c5784840389528151613c6d8582613c08565b9450613c7883613c1c565b925060208a01995050600181019050613c54565b50829750879550505050505092915050565b60006020820190508181036000830152613cb88184613c29565b905092915050565b60008060408385031215613cd757613cd6613720565b5b6000613ce58582860161374b565b9250506020613cf68582860161374b565b9150509250929050565b613d0981613780565b82525050565b6000602082019050613d246000830184613d00565b92915050565b600080fd5b600080fd5b7f4e487b7100000000000000000000000000000000000000000000000000000000600052604160045260246000fd5b613d6c82613ac1565b810181811067ffffffffffffffff82111715613d8b57613d8a613d34565b5b80604052505050565b6000613d9e613716565b9050613daa8282613d63565b919050565b600067ffffffffffffffff821115613dca57613dc9613d34565b5b613dd382613ac1565b9050602081019050919050565b82818337600083830152505050565b6000613e02613dfd84613daf565b613d94565b905082815260208101848484011115613e1e57613e1d613d2f565b5b613e29848285613de0565b509392505050565b600082601f830112613e4657613e45613d2a565b5b8135613e56848260208601613def565b91505092915050565b600060ff82169050919050565b613e7581613e5f565b8114613e8057600080fd5b50565b600081359050613e9281613e6c565b92915050565b60008060008060808587031215613eb257613eb1613720565b5b6000613ec08782880161374b565b945050602085013567ffffffffffffffff811115613ee157613ee0613725565b5b613eed87828801613e31565b9350506040613efe87828801613e83565b9250506060613f0f87828801613e83565b91505092959194509250565b60008060408385031215613f3257613f31613720565b5b6000613f40858286016137a9565b9250506020613f518582860161374b565b9150509250929050565b613f648161372a565b82525050565b6000602082019050613f7f6000830184613f5b565b92915050565b600080fd5b600080fd5b60008083601f840112613fa557613fa4613d2a565b5b8235905067ffffffffffffffff811115613fc257613fc1613f85565b5b602083019150836001820283011115613fde57613fdd613f8a565b5b9250929050565b60008060008060608587031215613fff57613ffe613720565b5b600061400d8782880161374b565b945050602085013567ffffffffffffffff81111561402e5761402d613725565b5b61403a87828801613e31565b935050604085013567ffffffffffffffff81111561405b5761405a613725565b5b61406787828801613f8f565b925092505092959194509250565b6000806040838503121561408c5761408b613720565b5b600061409a8582860161374b565b925050602083013567ffffffffffffffff8111156140bb576140ba613725565b5b6140c785828601613e31565b9150509250929050565b6140da81613a51565b82525050565b600082825260208201905092915050565b60006140fc82613a72565b61410681856140e0565b9350614116818560208601613a8e565b61411f81613ac1565b840191505092915050565b600061016082019050614140600083018e613f5b565b61414d602083018d613f5b565b61415a604083018c613f5b565b614167606083018b613f5b565b614174608083018a613f5b565b61418160a0830189613d00565b61418e60c0830188613d00565b61419b60e08301876140d1565b8181036101008301526141ae81866140f1565b90508181036101208301526141c381856140f1565b90508181036101408301526141d881846140f1565b90509c9b505050505050505050505050565b60008060006060848603121561420357614202613720565b5b60006142118682870161374b565b935050602061422286828701613e83565b925050604084013567ffffffffffffffff81111561424357614242613725565b5b61424f86828701613e31565b9150509250925092565b600063ffffffff82169050919050565b61427281614259565b811461427d57600080fd5b50565b60008135905061428f81614269565b92915050565b6000602082840312156142ab576142aa613720565b5b60006142b984828501614280565b91505092915050565b600081519050919050565b600082825260208201905092915050565b6000819050602082019050919050565b60006142fa83836139ec565b60208301905092915050565b6000602082019050919050565b600061431e826142c2565b61432881856142cd565b9350614333836142de565b8060005b8381101561436457815161434b88826142ee565b975061435683614306565b925050600181019050614337565b5085935050505092915050565b6000602082019050818103600083015261438b8184614313565b905092915050565b61439c81613e5f565b82525050565b60006080820190506143b76000830187614393565b6143c46020830186614393565b81810360408301526143d681856140f1565b905081810360608301526143ea81846140f1565b905095945050505050565b7f4e487b7100000000000000000000000000000000000000000000000000000000600052603260045260246000fd5b7f4e487b7100000000000000000000000000000000000000000000000000000000600052601160045260246000fd5b600061445e8261372a565b91507fffffffffffffffffffffffffffffffffffffffffffffffffffffffffffffffff82141561449157614490614424565b5b600182019050919050565b7f4e6f742063726561746f72000000000000000000000000000000000000000000600082015250565b60006144d2600b836140e0565b91506144dd8261449c565b602082019050919050565b60006020820190508181036000830152614501816144c5565b9050919050565b60006145138261372a565b915061451e8361372a565b9250827fffffffffffffffffffffffffffffffffffffffffffffffffffffffffffffffff0382111561455357614552614424565b5b828201905092915050565b7f43616e6e6f742077697468647261770000000000000000000000000000000000600082015250565b6000614594600f836140e0565b915061459f8261455e565b602082019050919050565b600060208201905081810360008301526145c381614587565b9050919050565b600a81106145db576145da6139fb565b5b50565b60008190506145ec826145ca565b919050565b60006145fc826145de565b9050919050565b61460c816145f1565b82525050565b60006060820190506146276000830186613f5b565b6146346020830185613d00565b6146416040830184614603565b949350505050565b7f4e487b7100000000000000000000000000000000000000000000000000000000600052602260045260246000fd5b6000600282049050600182168061469057607f821691505b602082108114156146a4576146a3614649565b5b50919050565b7f5461736b206e6f7420666f756e64000000000000000000000000000000000000600082015250565b60006146e0600e836140e0565b91506146eb826146aa565b602082019050919050565b6000602082019050818103600083015261470f816146d3565b9050919050565b7f596f7520617265207468652063726561746f7200000000000000000000000000600082015250565b600061474c6013836140e0565b915061475782614716565b602082019050919050565b6000602082019050818103600083015261477b8161473f565b9050919050565b600061478d82613e5f565b915061479883613e5f565b92508260ff038211156147ae576147ad614424565b5b828201905092915050565b7f50657263656e74616765206e6f7420636f727265637400000000000000000000600082015250565b60006147ef6016836140e0565b91506147fa826147b9565b602082019050919050565b6000602082019050818103600083015261481e816147e2565b9050919050565b7f4e6f7420756e6465722064697361677265656d656e7400000000000000000000600082015250565b600061485b6016836140e0565b915061486682614825565b602082019050919050565b6000602082019050818103600083015261488a8161484e565b9050919050565b600061489c8261372a565b91506148a78361372a565b9250817fffffffffffffffffffffffffffffffffffffffffffffffffffffffffffffffff04831182151516156148e0576148df614424565b5b828202905092915050565b7f4e487b7100000000000000000000000000000000000000000000000000000000600052601260045260246000fd5b60006149258261372a565b91506149308361372a565b9250826149405761493f6148eb565b5b828204905092915050565b60006149568261372a565b91506149618361372a565b92508282101561497457614973614424565b5b828203905092915050565b7f5461736b206e6f74206163746976650000000000000000000000000000000000600082015250565b60006149b5600f836140e0565b91506149c08261497f565b602082019050919050565b600060208201905081810360008301526149e4816149a8565b9050919050565b7f4e6f742070726f7669646572206f722063726561746f72000000000000000000600082015250565b6000614a216017836140e0565b9150614a2c826149eb565b602082019050919050565b60006020820190508181036000830152614a5081614a14565b9050919050565b7f4e6f742073746172746564000000000000000000000000000000000000000000600082015250565b6000614a8d600b836140e0565b9150614a9882614a57565b602082019050919050565b60006020820190508181036000830152614abc81614a80565b9050919050565b600061016083016000830151614adc600086018261388d565b506020830151614aef602086018261388d565b506040830151614b02604086018261388d565b506060830151614b15606086018261388d565b506080830151614b28608086018261388d565b5060a0830151614b3b60a08601826139ec565b5060c0830151614b4e60c08601826139ec565b5060e0830151614b6160e0860182613a63565b50610100830151848203610100860152614b7b8282613ad2565b915050610120830151848203610120860152614b978282613ad2565b915050610140830151848203610140860152614bb38282613ad2565b9150508091505092915050565b6000614bcc83856140e0565b9350614bd9838584613de0565b614be283613ac1565b840190509392505050565b6000608082019050614c026000830188613f5b565b8181036020830152614c148187614ac3565b9050614c236040830186613d00565b8181036060830152614c36818486614bc0565b90509695505050505050565b7f4e6f742070726f76696465720000000000000000000000000000000000000000600082015250565b6000614c78600c836140e0565b9150614c8382614c42565b602082019050919050565b60006020820190508181036000830152614ca781614c6b565b9050919050565b7f4e6f74206f6e20676f696e67207461736b000000000000000000000000000000600082015250565b6000614ce46011836140e0565b9150614cef82614cae565b602082019050919050565b60006020820190508181036000830152614d1381614cd7565b9050919050565b7f596f7520617265206e6f74207468652063726561746f72000000000000000000600082015250565b6000614d506017836140e0565b9150614d5b82614d1a565b602082019050919050565b60006020820190508181036000830152614d7f81614d43565b9050919050565b7f4e6f7420656e6465640000000000000000000000000000000000000000000000600082015250565b6000614dbc6009836140e0565b9150614dc782614d86565b602082019050919050565b60006020820190508181036000830152614deb81614daf565b9050919050565b7f50726f7669646572207375626d69747465640000000000000000000000000000600082015250565b6000614e286012836140e0565b9150614e3382614df2565b602082019050919050565b60006020820190508181036000830152614e5781614e1b565b9050919050565b7f526174696e672072616e67652073686f756c642062652030202d203500000000600082015250565b6000614e94601c836140e0565b9150614e9f82614e5e565b602082019050919050565b60006020820190508181036000830152614ec381614e87565b9050919050565b7f4d697373696e6720636f6d6d656e740000000000000000000000000000000000600082015250565b6000614f00600f836140e0565b9150614f0b82614eca565b602082019050919050565b60006020820190508181036000830152614f2f81614ef3565b9050919050565b7f50726f766964657220646964206e6f74206170706c792074686973206a6f6200600082015250565b6000614f6c601f836140e0565b9150614f7782614f36565b602082019050919050565b60006020820190508181036000830152614f9b81614f5f565b9050919050565b7f4e6f7420636f6d706c6574656400000000000000000000000000000000000000600082015250565b6000614fd8600d836140e0565b9150614fe382614fa2565b602082019050919050565b6000602082019050818103600083015261500781614fcb565b9050919050565b7f4f776e61626c653a206e6577206f776e657220697320746865207a65726f206160008201527f6464726573730000000000000000000000000000000000000000000000000000602082015250565b600061506a6026836140e0565b91506150758261500e565b604082019050919050565b600060208201905081810360008301526150998161505d565b9050919050565b7f4f776e61626c653a2063616c6c6572206973206e6f7420746865206f776e6572600082015250565b60006150d66020836140e0565b91506150e1826150a0565b602082019050919050565b60006020820190508181036000830152615105816150c9565b905091905056fea2646970667358221220895c2fddee2fcd4ea555479a44ac1841918d89b1d766c45d7003e4802c84698d64736f6c63430008090033",
  "linkReferences": {},
  "deployedLinkReferences": {}
}